:100000000C9417010C9446010C9446010C94460183
:100010000C9446010C9446010C9446010C94460144
:100020000C9446010C9446010C9446010C94460134
:100030000C9446010C9446010C9446010C94460124
:100040000C9446010C9446010C9446010C94460114
:100050000C9446010C9446010C9446010C949F07A5
:100060000C9446010C940D0B0C94430B0C9446011C
:100070000C9446010C9446010C9446010C944601E4
:100080000C9446010C9446010C9446010C944601D4
:100090000C9446010C9446010C9446010C946E0697
:1000A0000C9446010C9446010C9446010C944601B4
:1000B0000C9446010C9446010C9446010C944601A4
:1000C0000C9446010C9446010C9446010C94460194
:1000D0000C9446010C9446010C9446010C94460184
:1000E0000C944601C608C908B808BC08C208000933
:1000F000CD08D108D708DB08DF08E508E908ED08D6
:100100000009F308F708FB0800000A0B02090C0DB0
:100110000E080703040100000000000000000000BA
:1001200000000000000000000000000000000000CF
:10013000000000001211100000000000000000008C
:1001400000000000000000000000000000000102AC
:1001500010202008081020401020408002010201D9
:100160000804020101020408102040808040201091
:1001700008040201800402018040201008040201EA
:100180000804020101020408102040800102040852
:10019000102040800505050507050808080802022B
:1001A00002020A0A08080404040401010101010111
:1001B00001010303030303030303040707070C0CF4
:1001C0000C0C0C0C0C0C02020202060606060606BB
:1001D00006060B0B0B0B0B0B0B0B00002000230078
:1001E000260029002C002F0032000001000003012E
:1001F0000601090100002200250028002B002E0026
:100200003100340002010000050108010B0100006B
:100210002100240027002A002D00300033000101B6
:100220000000040107010A017002D005770B1124B8
:100230001FBECFEFD1E2DEBFCDBF12E0A0E0B2E043
:10024000EAE0F0E200E00BBF02C007900D92A03997
:10025000B107D9F724E0A0E9B2E001C01D92A231B4
:10026000B207E1F712E0CEE2D2E000E006C022974A
:100270000109FE010BBF0E94FF0FC832D10780E0C9
:100280000807A9F70E94BB0B0C9403100C94000004
:1002900026E040E855E260E070E085E793E00E94E8
:1002A000AB0A60E172E085E793E00E94150C61E023
:1002B00082E00E94010980EA92E00E94B60441E0D7
:1002C00060E080EA92E00E947D046CE172E080EAE6
:1002D00092E00E94080C4091040250910502609146
:1002E0000602709107022AE030E080EA92E00E9464
:1002F000800C41E068E080EA92E00E947D0463E2C5
:1003000072E080EA92E00E94080C41E06AE080EA34
:1003100092E00E947D0440910002509101026091A0
:100320000202709103022AE030E080EA92E00C942D
:10033000800CCF93DF93EC0141E06DE080EA92E026
:100340000E947D04219719F466E272E002C06AE21D
:1003500072E080EA92E0DF91CF910C94080C8F92CA
:100360009F92AF92BF92CF92DF92EF92FF9282E97B
:1003700092E00E94B0034B015C0160E082E992E0F0
:100380000E9436036B017C019B01AC010E94D30FDC
:1003900081119FC0A5019401C501B4010E94D30F32
:1003A000811197C040E060E080EA92E00E947D0405
:1003B0006EE272E080EA92E00E94080C40E062E0A7
:1003C00080EA92E00E947D0422E030E0B701A601BD
:1003D00080EA92E00E94B50D40E068E080EA92E099
:1003E0000E947D0461E372E080EA92E00E94080CC2
:1003F00040E06AE080EA92E00E947D0422E030E082
:10040000B501A40180EA92E00E94B50D80919002AE
:10041000909191020197B9F46091040270910502E4
:1004200080910602909107020E94BC0E9B01AC01D4
:10043000C701B6010E946C0F18164CF5109291027C
:100440001092900224C06091040270910502809184
:100450000602909107028090000290900102A09005
:100460000202B0900302681979098A099B090E9467
:10047000BC0E9B01AC01C701B6010E941D0E87FF97
:1004800006C081E090E09093910280939002809169
:10049000900290919102019731F481E090E00E94E6
:1004A000990161E005C080E090E00E94990160E060
:1004B00082E00E943A0968EB7BE080E090E0FF90E8
:1004C000EF90DF90CF90BF90AF909F908F900C9463
:1004D000180864E372E085E793E00E94150CD7CF1B
:1004E0000F9300E022E040E167E280EA92E00E94A0
:1004F000FB0326E046E163E082E992E00F910C9471
:100500008102FC0166834783208781E08587089507
:10051000DF92EF92FF920F931F93CF93DF93EC0143
:1005200061E08E810E943A096AEF70E080E090E01D
:100530000E9418080E94E90709851A852B853C85C9
:10054000601771078207930720F419861A861B86A5
:100550001C862D85211111C009851A852B853C85A6
:10056000DC01CB01801B910BA20BB30B803D9740AC
:10057000A105B10510F481E071C01D860E94E90754
:1005800069877A878B879C871C821B821A821982D3
:10059000188261E08E810E94010960E08E810E94D4
:1005A0003A0964E170E080E090E00E941808F89455
:1005B00061E08E810E943A0988E290E00E94400842
:1005C00060E08E810E940109F12CD12C81E0E12CA8
:1005D000082F10E08E810E9470098017910741F466
:1005E000E39481E090E00E9440088FEFE812F2CFA0
:1005F0008E810E9470099FEFE916C9F023E02F1544
:1006000090F4F0FC10C09D2D969596959695FE0160
:10061000E90FF11D9081990F908328852E1510F414
:1006200091609083D394F39495E5F912D0CF7894A8
:1006300027E22D1590F42C8130E04881898190E0EB
:10064000840F911D4A81840F911D4B81840F911D50
:1006500099272817390709F48ECF80E0DF91CF91D1
:100660001F910F91FF90EF90DF900895CF92DF924E
:10067000EF92FF920F931F93CF93DF93EC01162F0E
:100680000E948802882309F450C08F818B3031F09A
:1006900008F44BC08551823078F047C06A8170E021
:1006A00080E090E00E94BA0E112309F449C020E0D6
:1006B00030E040E151E42AC00A81602F6F7770E09A
:1006C00080E090E00E94BC0E20E030E040E853E47F
:1006D0000E94700F6B017C016B8170E080E090E004
:1006E0000E94BC0E9B01AC01C701B6010E94B90D6E
:1006F00020E030E040E251E40E94210E07FD9058D6
:10070000112309F120E030E040E151E40E94700F34
:1007100020E030E040EA50E40E94210E20E030E08A
:1007200040E052E40E94B90D0EC06CE472E085E72F
:1007300093E00E94080C20E030E040EC5FE705C049
:100740009B01AC0102C09B01AC01B901CA01DF9160
:10075000CF911F910F91FF90EF90DF90CF90089570
:10076000CF92DF92EF92FF92CF93DF93EC010E9442
:100770008802882379F18F818B3029F158F18551D6
:10078000823040F5688170E080E090E00E94BA0E0F
:1007900020E030E040E853E40E94700F6B017C01E0
:1007A000698170E080E090E00E94BC0E9B01AC018A
:1007B000C701B6010E94B90D20E030E040E251E4EB
:1007C0000E94210E11C0688170E080E090E00E94DC
:1007D000BA0E0AC06CE472E085E793E00E94080C50
:1007E00060E070E080EC9FE7DF91CF91FF90EF90A9
:1007F000DF90CF9008950F93FC01138212828AE557
:1008000092E091838083648340872187028788E018
:1008100083870F9108951F93CF93DF93EC01162FD9
:100820006C818CEA92E00E94B005E091AC02F091FC
:10083000AD026B85612B0190F081E02D8CEA92E096
:1008400009958CEA92E0DF91CF911F910C94CD0530
:100850001F93CF93DF93EC01162F64600E940B046B
:1008600081E090E00E944008612F6B7FCE010E94E2
:100870000B0482E390E0DF91CF911F910C9440082C
:100880001F93CF93DF93EC01162F0E940B04612F6F
:10089000CE01DF91CF911F910C942804EF92FF922B
:1008A0001F93CF93DF931F92CDB7DEB77C01162F36
:1008B000607F642B49830E94400480E1189FB0014F
:1008C00011244981642BC7010F90DF91CF911F91B3
:1008D000FF90EF900C94400440E00C944E0461E0D3
:1008E0000E946C0480ED97E00C94400862E00E9446
:1008F0006C0480ED97E00C944008CF93DF93CDB764
:10090000DEB728970FB6F894DEBF0FBECDBF28E044
:10091000E8E0F2E0DE01119601900D922A95E1F7F0
:10092000FC012185241710F44FEF420FFE01319690
:10093000E40FF11DE40FF11D2081260F2068622FC6
:1009400028960FB6F894DEBF0FBECDBFDF91CF91D2
:100950000C946C04FC016681262F246026836C6055
:100960000C946C0441E00E944E040895CF93DF93F1
:10097000EC018CEA92E00E94A6051D8289858230F6
:1009800010F098E09D839A85992329F0813019F41D
:100990008D8184608D8362E370E080E090E00E944E
:1009A00018086B85CE010E940B0468EE73E080E0AE
:1009B00090E00E94180860E3CE010E94400484E9A0
:1009C00091E10E94400860E3CE010E94400484E966
:1009D00091E10E94400860E3CE010E94400486E954
:1009E00090E00E94400860E2CE010E9440046D81C8
:1009F0006062CE010E946C0484E08E83CE010E946E
:100A0000AA04CE010E946F0482E08F8366E0CE01CB
:100A10000E946C04CE01DF91CF910C9476048091FA
:100A2000DC0290E02091DD02821B91090895209163
:100A3000DD028091DC02281750F4E22FF0E0E25250
:100A4000FD4F808190E02F5F2093DD0208958FEFAE
:100A50009FEF0895E091DD028091DC02E81730F409
:100A6000F0E0E252FD4F808190E008958FEF9FEF1C
:100A700008950895CF92DF92EF92FF920F931F9304
:100A8000CF93DF937C01CB018A012091B80222230E
:100A900089F0EB016B01C40ED51ECC15DD0569F0A4
:100AA0006991D701ED91FC910190F081E02DC70192
:100AB0000995F3CF642F0E944506C801DF91CF91BD
:100AC0001F910F91FF90EF90DF90CF900895CF93FB
:100AD000DF931F92CDB7DEB769832091B80222233E
:100AE000D1F02091B902203240F021E030E0FC0149
:100AF0003383228380E090E015C08091BA02E82F12
:100B0000F0E0E554FD4F998190838F5F8093BA02A6
:100B10008093B90205C061E0CE0101960E944506AE
:100B200081E090E00F90DF91CF910895FC01138256
:100B3000128248EE53E060E070E0448355836683A0
:100B4000778382E692E09183808308951092DD029C
:100B50001092DC021092BA021092B9020C94D405E1
:100B600081E08093B8026093DB021092BA02109287
:100B7000B90208950F93062F21E04091B9026BEB63
:100B800072E08091DB020E94F2051092BA0210928C
:100B9000B9021092B8020F91089561E00C94BA0561
:100BA0008CEA92E00C94960510926B0381E080939E
:100BB00069031092680361E084E10E943A0961E0F0
:100BC00085E10E943A09E9EBF0E080818E7F808325
:100BD00080818D7F808388E48093B80085E4809352
:100BE000BC0008950F93413208F046C090916B030A
:100BF0009111FCCF92E090936B03009369039FEFF8
:100C00009093FE021092430340934203FB0164E47D
:100C100073E0DB019A2F961B941718F491919D9322
:100C2000F9CF10926A0390916A03880F892B809301
:100C30006A0380916803813041F4109268038091C7
:100C40006A038093BB0085EC01C085EE8093BC00F5
:100C5000222321F080916B038230E1F38091FE0228
:100C60008F3F61F08091FE02803251F08091FE0250
:100C7000803341F483E007C081E005C080E003C019
:100C800082E001C084E00F910895613298F42091D0
:100C90006B03243089F460932003FC0182E293E02B
:100CA000DC012A2F281B261718F421912D93F9CF48
:100CB00080E0089581E0089582E0089585ED8093B5
:100CC000BC008091BC0084FDFCCF10926B030895A2
:100CD00085EC8093BC0010926B0308951F920F92D5
:100CE0000FB60F9211240BB60F922F933F934F9391
:100CF0005F936F937F938F939F93AF93BF93EF9384
:100D0000FF938091B900887F803609F49CC068F514
:100D1000883209F45BC090F4803109F454C038F48F
:100D2000882309F4F5C0883009F44DC0F5C0883136
:100D300009F44CC0803209F45DC0EEC0803409F47F
:100D400068C048F4803309F455C0883309F0E4C022
:100D50008093FE02A8C0803509F44FC0883509F49D
:100D60005DC0883409F0D8C0D5C0883909F4C6C040
:100D7000A8F4883709F467C038F4883609F463C0EA
:100D8000803709F460C0C8C0883809F4B7C080391A
:100D900009F45FC0803809F0BFC05BC0803B09F434
:100DA00085C038F4803A09F466C0883A09F47EC0F8
:100DB000B3C0803C09F4A6C0883C09F4A3C0883BBA
:100DC00009F489C0A9C080916A0310C090914303BF
:100DD00080914203981770F5E091430381E08E0FF4
:100DE00080934303F0E0EC5BFC4F80818093BB0079
:100DF00085EC85C08093FE028DC0E091430381E0C5
:100E00008E0F809343038091BB00F0E0EC5BFC4FBE
:100E1000808390914303809142036DC0E09143032E
:100E200081E08E0F809343038091BB00F0E0EC5B88
:100E3000FC4F80838091690381116CC081E08093B5
:100E4000680384EA60C083E080936B031092FF0222
:100E5000CFCF8091FF02803208F050C0E091FF02B6
:100E600081E08E0F8093FF028091BB00F0E0E050A4
:100E7000FD4F8083BDCF8091FF02803230F4E0913E
:100E8000FF02F0E0E050FD4F10820E945E0660918C
:100E9000FF0270E0E0916403F091650380E093E06D
:100EA00009951092FF020E94680636C084E0809384
:100EB0006B031092210310922003E0916603F091DE
:100EC0006703099580912003811105C081E080931B
:100ED000200310922203E091210381E08E0F809382
:100EE0002103F0E0EE5DFC4F80818093BB00909188
:100EF000210380912003981708F47ACF85E8809326
:100F0000BC000AC085EC8093BC0010926B0304C047
:100F10001092FE020E945E06FF91EF91BF91AF9189
:100F20009F918F917F916F915F914F913F912F9101
:100F30000F900BBE0F900FBE0F901F9018951F9231
:100F40000F920FB60F9211242F933F938F939F937D
:100F5000AF93BF9380916D0390916E03A0916F0347
:100F6000B091700330916C0323E0230F2D3720F4F0
:100F70000196A11DB11D05C026E8230F0296A11DF3
:100F8000B11D20936C0380936D0390936E03A09327
:100F90006F03B09370038091710390917203A091DD
:100FA0007303B09174030196A11DB11D8093710369
:100FB00090937203A0937303B0937403BF91AF91A6
:100FC0009F918F913F912F910F900FBE0F901F9087
:100FD00018952FB7F89460916D0370916E0380910E
:100FE0006F03909170032FBF08953FB7F8948091DD
:100FF000710390917203A0917303B091740326B5AD
:10100000A89B05C02F3F19F00196A11DB11D3FBF40
:101010006627782F892F9A2F620F711D811D911DD0
:1010200042E0660F771F881F991F4A95D1F70895F0
:10103000CF92DF92EF92FF92CF93DF936B017C010F
:101040000E94F507EB01C114D104E104F10489F019
:101050000E94B70D0E94F5076C1B7D0B683E734024
:1010600090F381E0C81AD108E108F108C851DC4FBB
:10107000EACFDF91CF91FF90EF90DF90CF9008956E
:101080008230910538F0880F991F880F991F0597B6
:101090000197F1F70895789484B5826084BD84B592
:1010A000816084BD85B5826085BD85B5816085BD63
:1010B000EEE6F0E0808181608083E1E8F0E010827C
:1010C000808182608083808181608083E0E8F0E0BD
:1010D000808181608083E1EBF0E0808184608083A7
:1010E000E0EBF0E0808181608083E1E9F0E08081E5
:1010F00082608083808181608083E0E9F0E080818C
:1011000081608083E1EAF0E0808182608083808179
:1011100081608083E0EAF0E0808181608083E1E2A9
:10112000F1E0808182608083808181608083E0E261
:10113000F1E0808181608083EAE7F0E08081846073
:1011400080838081826080838081816080838081D0
:10115000806880831092C100089590E0FC0131976F
:10116000E231F10508F04CC0EE58FF4F0C94F90F36
:10117000809180008F7703C0809180008F7D809365
:101180008000089580918000877FF9CF84B58F77A4
:1011900002C084B58F7D84BD08958091B0008F77A3
:1011A00003C08091B0008F7D8093B000089580913E
:1011B00090008F7707C0809190008F7D03C0809151
:1011C0009000877F8093900008958091A0008F7792
:1011D00007C08091A0008F7D03C08091A000877F11
:1011E0008093A0000895809120018F7707C080919F
:1011F00020018F7D03C080912001877F8093200193
:101200000895CF93DF9390E0FC01E25BFE4F2491C1
:10121000FC01EC56FE4F8491882349F190E0880F41
:10122000991FFC01E25FFD4FA591B4918C509E4F38
:10123000FC01C591D4919FB7611108C0F8948C91BD
:10124000209582238C93888182230AC0623051F4D6
:10125000F8948C91322F309583238C938881822B44
:10126000888304C0F8948C91822B8C939FBFDF916C
:10127000CF9108950F931F93CF93DF931F92CDB714
:10128000DEB7282F30E0F901E85FFE4F8491F901C5
:10129000E25BFE4F1491F901EC56FE4F04910023DE
:1012A000C9F0882321F069830E94AD086981E02F8D
:1012B000F0E0EE0FFF1FEC50FE4FA591B4919FB7E9
:1012C000F8948C91611103C01095812301C0812B8A
:1012D0008C939FBF0F90DF91CF911F910F91089535
:1012E000CF93DF93282F30E0F901E85FFE4F849120
:1012F000F901E25BFE4FD491F901EC56FE4FC49127
:10130000CC2391F081110E94AD08EC2FF0E0EE0F9C
:10131000FF1FE652FE4FA591B4912C912D2381E041
:1013200090E021F480E002C080E090E0DF91CF9176
:101330000895FC01818D228D90E0805C9F4F821B7F
:1013400091098F7399270895FC01918D828D9817CB
:1013500031F0828DE80FF11D858D90E008958FEFBB
:101360009FEF0895FC01918D828D981761F0828D19
:10137000DF01A80FB11D5D968C91928D9F5F9F73C9
:10138000928F90E008958FEF9FEF08958DE69BE098
:10139000892B41F080E090E0892B21F00E946D0BB9
:1013A000811125C080E090E0892B41F080E090E041
:1013B000892B21F00E94000081111CC080E090E088
:1013C000892B41F080E090E0892B21F00E94000001
:1013D000811113C080E090E0892BA1F080E090E0C3
:1013E000892B81F00E94000081110AC008950E949B
:1013F0000000D8CF0E940000E1CF0E940000EACF99
:101400000C9400000895FC01848DDF01A80FB11D2C
:10141000A35ABF4F2C91848D90E001968F7399272A
:10142000848FA689B7892C93A089B1898C91806417
:101430008C93938D848D981306C00288F389E02DD8
:1014400080818F7D80830895CF93DF93EC01888D19
:101450008823C9F0EA89FB89808185FD05C0A889B8
:10146000B9898C9186FD0FC00FB607FCF5CF80813E
:1014700085FFF2CFA889B9898C9185FFEDCFCE0188
:101480000E94030AE7CFDF91CF910895CF92DF92B8
:10149000FF920F931F93CF93DF931F92CDB7DEB7C9
:1014A0006C0181E0D60158968C9358975B969C917D
:1014B0005B975C968C915C97981307C05096ED9162
:1014C000FC915197808185FD2EC0F601038D10E0BF
:1014D0000F5F1F4F0F731127F02EF601848DF81246
:1014E00011C00FB607FCF9CFD6015096ED91FC91D3
:1014F0005197808185FFF1CFC60169830E94030A5D
:101500006981EBCF838DE80FF11DE35AFF4F6083B4
:10151000D6015B960C935B975296ED91FC91539795
:10152000808180620CC0D6015696ED91FC91579750
:1015300060835096ED91FC91519780818064808307
:1015400081E090E00F90DF91CF911F910F91FF907C
:10155000DF90CF900895BF92CF92DF92EF92FF92EB
:10156000CF93DF93EC016A017B01B22EE889F98900
:1015700082E08083411581EE580761057105A1F075
:1015800060E079E08DE390E0A70196010E94D70F1B
:1015900021503109410951095695479537952795AD
:1015A000211580E1380798F0E889F989108260E810
:1015B00074E88EE190E0A70196010E94D70F2150B8
:1015C0003109410951095695479537952795EC857D
:1015D000FD853083EE85FF852083188EEC89FD899B
:1015E000B082EA89FB89808180618083EA89FB89F6
:1015F000808188608083EA89FB898081806880831C
:10160000EA89FB8980818F7D8083DF91CF91FF9074
:10161000EF90DF90CF90BF9008951F920F920FB67A
:101620000F9211240BB60F922F938F939F93EF93EA
:10163000FF93E0918503F09186038081E0918B0315
:10164000F0918C0382FD12C0908180918E038F5F98
:101650008F7320918F03821751F0E0918E03F0E099
:10166000EB58FC4F958F80938E0301C08081FF91D2
:10167000EF919F918F912F910F900BBE0F900FBE06
:101680000F901F9018951F920F920FB60F92112472
:101690000BB60F922F933F934F935F936F937F936C
:1016A0008F939F93AF93BF93EF93FF9385E793E05F
:1016B0000E94030AFF91EF91BF91AF919F918F918B
:1016C0007F916F915F914F913F912F910F900BBE42
:1016D0000F900FBE0F901F90189585E793E00E9422
:1016E000990921E0892B09F420E0822F08951092B6
:1016F00078031092770388EE93E0A0E0B0E0809347
:10170000790390937A03A0937B03B0937C0382E7E1
:1017100092E0909376038093750385EC90E090932C
:1017200082038093810384EC90E090938403809300
:10173000830380EC90E0909386038093850381EC93
:1017400090E0909388038093870382EC90E09093DD
:101750008A038093890386EC90E090938C038093B6
:101760008B0310928E0310928F03109290031092AD
:101770009103089508950E944B080E94BA0B0E949D
:101780004801C6ECD9E00E94AF012097E1F30E9426
:10179000C609F9CFCF92DF92EF92FF920F931F937A
:1017A000CF93DF936C017A01EB01E60EF71E00E0A8
:1017B00010E0CE15DF0561F06991D601ED91FC9145
:1017C0000190F081E02DC6010995080F191FF1CF96
:1017D000C801DF91CF911F910F91FF90EF90DF90A3
:1017E000CF9008956115710581F0DB010D90002007
:1017F000E9F7AD0141505109461B570BDC01ED9152
:10180000FC910280F381E02D099480E090E008953E
:101810000C94F20BDC01ED91FC910190F081E02D34
:1018200009946EE772E00C94F20B0F931F93CF9321
:10183000DF93EC010E94F20B8C01CE010E94110C8F
:10184000800F911FDF91CF911F910F9108958F927B
:101850009F92AF92BF92CF92DF92EF92FF920F933F
:101860001F93CF93DF93CDB7DEB7A1970FB6F89450
:10187000DEBF0FBECDBF7C01C42EE52FCB01D22E23
:1018800019A221E02D1510F02AE0D22E8E010F5D55
:101890001F4F8D2C912CA12CB12C6C2D7E2FA501CE
:1018A00094010E94D70F8C2DD29E801911240150D3
:1018B00011098A3014F4805D01C0895CF8018083CD
:1018C000211531054105510521F0C22EE32FCA0132
:1018D000E4CFB801C7010E94F20BA1960FB6F894AD
:1018E000DEBF0FBECDBFDF91CF911F910F91FF9053
:1018F000EF90DF90CF90BF90AF909F908F90089522
:10190000CF92DF92EF92FF920F931F93CF93DF93CB
:10191000EC016A017B012115310579F4E881F98137
:101920000190F081E02D642FDF91CF911F910F91F5
:10193000FF90EF90DF90CF9009942A303105E9F4C1
:1019400077FF1AC06DE20E940A0C8C0144275527CC
:10195000BA014C195D096E097F092AE0CE010E9487
:10196000270C800F911FDF91CF911F910F91FF9056
:10197000EF90DF90CF9008952AE0B701A601CE0145
:10198000DF91CF911F910F91FF90EF90DF90CF905B
:101990000C94270C4F925F926F927F928F929F923E
:1019A000AF92BF92CF92DF92EF92FF920F931F936D
:1019B000CF93DF93EC016A017B01B22E9A01AB0158
:1019C000C701B6010E94D30F882319F061E872E0C5
:1019D00027C026013701E89477F82FEF3FEF4FE754
:1019E0005FE7C301B2010E94D30F81110DC02FEF39
:1019F0003FEF4FE75FE7C301B2010E941D0E1816CB
:101A00001CF465E872E00CC02FEF3FEF4FE75FE496
:101A1000C701B6010E946C0F1816ACF469E872E0B9
:101A2000CE01DF91CF911F910F91FF90EF90DF904A
:101A3000CF90BF90AF909F908F907F906F905F906E
:101A40004F900C94F20B2FEF3FEF4FE75FECC70185
:101A5000B6010E941D0E87FDE1CF20E030E0A90114
:101A6000C701B6010E941D0E87FF0AC06DE2CE01BC
:101A70000E940A0C8C01F7FAF094F7F8F09402C077
:101A800000E010E0A12C60E070E080E09FE3AB1488
:101A900041F020E030E040E251E40E94210EA394A6
:101AA000F6CF9B01AC01C701B6010E94B90D6B01D5
:101AB0007C010E948E0E2B013C010E94BA0E9B01FC
:101AC000AC01C701B6010E94B80D6B017C012AE090
:101AD000B301A201CE010E94270C080F191FBB20E1
:101AE00039F06DE872E0CE010E94F20B080F191F69
:101AF0007B2C772041F120E030E040E251E4C70147
:101B0000B6010E94700F6B017C010E94890E4B018F
:101B1000AA2497FCA094BA2C2AE030E0B501A401D5
:101B2000CE010E94800C080F191FC501B4010E944C
:101B3000BC0E9B01AC01C701B6010E94B80D6B0140
:101B40007C017A94D6CFC801DF91CF911F910F917C
:101B5000FF90EF90DF90CF90BF90AF909F908F90CD
:101B60007F906F905F904F9008950C94CA0C0895E9
:101B70005058BB27AA270ED075C166D130F06BD163
:101B800020F031F49F3F11F41EF45BC10EF4E09598
:101B9000E7FB51C1E92F77D180F3BA1762077307CA
:101BA0008407950718F071F49EF58FC10EF4E09547
:101BB0000B2EBA2FA02D0B01B90190010C01CA0107
:101BC000A0011124FF27591B99F0593F50F4503EB2
:101BD00068F11A16F040A22F232F342F4427585FA4
:101BE000F3CF469537952795A795F0405395C9F7BC
:101BF0007EF41F16BA0B620B730B840BBAF0915074
:101C0000A1F0FF0FBB1F661F771F881FC2F70EC012
:101C1000BA0F621F731F841F48F4879577956795E5
:101C2000B795F7959E3F08F0B3CF9395880F08F0CE
:101C30009927EE0F979587950895D9D008F481E0FC
:101C400008950CD00FC107D140F0FED030F021F440
:101C50005F3F19F0F0C0511139C1F3C014D198F3AE
:101C60009923C9F35523B1F3951B550BBB27AA271D
:101C700062177307840738F09F5F5F4F220F331F8F
:101C8000441FAA1FA9F333D00E2E3AF0E0E830D05B
:101C900091505040E695001CCAF729D0FE2F27D05E
:101CA000660F771F881FBB1F261737074807AB072C
:101CB000B0E809F0BB0B802DBF01FF2793585F4FA1
:101CC0002AF09E3F510568F0B6C000C15F3FECF3BB
:101CD000983EDCF3869577956795B795F7959F5F66
:101CE000C9F7880F911D9695879597F90895E1E0BA
:101CF000660F771F881FBB1F621773078407BA0719
:101D000020F0621B730B840BBA0BEE1F88F7E09573
:101D1000089504D06894B111D9C00895BCD088F05A
:101D20009F5790F0B92F9927B751A0F0D1F0660FC7
:101D3000771F881F991F1AF0BA95C9F712C0B130E2
:101D400081F0C3D0B1E00895C0C0672F782F8827F5
:101D5000B85F39F0B93FCCF3869577956795B39521
:101D6000D9F73EF490958095709561957F4F8F4F90
:101D70009F4F0895E89409C097FB3EF49095809595
:101D8000709561957F4F8F4F9F4F9923A9F0F92F41
:101D900096E9BB279395F695879577956795B795BF
:101DA000F111F8CFFAF4BB0F11F460FF1BC06F5FA5
:101DB0007F4F8F4F9F4F16C0882311F096E911C0B7
:101DC000772321F09EE8872F762F05C0662371F0D8
:101DD00096E8862F70E060E02AF09A95660F771FEC
:101DE000881FDAF7880F9695879597F90895990FC8
:101DF0000008550FAA0BE0E8FEEF16161706E807D5
:101E0000F907C0F012161306E407F50798F0621BF5
:101E1000730B840B950B39F40A2661F0232B242BCA
:101E2000252B21F408950A2609F4A140A6958FEFE9
:101E3000811D811D089597F99F6780E870E060E03B
:101E400008959FEF80EC089500240A941616170653
:101E500018060906089500240A941216130614069B
:101E600005060895092E0394000C11F4882352F0FE
:101E7000BB0F40F4BF2B11F460FF04C06F5F7F4FB6
:101E80008F4F9F4F089557FD9058440F551F59F09D
:101E90005F3F71F04795880F97FB991F61F09F3F57
:101EA00079F087950895121613061406551FF2CF80
:101EB0004695F1DF08C0161617061806991FF1CFD0
:101EC00086957105610508940895E894BB276627F7
:101ED0007727CB0197F908958ADF08F48FEF0895EB
:101EE0000BD0C0CFB1DF28F0B6DF18F0952309F092
:101EF000A2CFA7CF1124EACFC6DFA0F3959FD1F3DD
:101F0000950F50E0551F629FF001729FBB27F00DA7
:101F1000B11D639FAA27F00DB11DAA1F649F6627FC
:101F2000B00DA11D661F829F2227B00DA11D621F4B
:101F3000739FB00DA11D621F839FA00D611D221F05
:101F4000749F3327A00D611D231F849F600D211DE9
:101F5000822F762F6A2F11249F5750408AF0E1F08C
:101F600088234AF0EE0FFF1FBB1F661F771F881FD5
:101F700091505040A9F79E3F510570F05CCFA6CF1D
:101F80005F3FECF3983EDCF3869577956795B795C0
:101F9000F795E7959F5FC1F7FE2B880F911D9695EA
:101FA000879597F9089523DF880B990B0895A1E28F
:101FB0001A2EAA1BBB1BFD010DC0AA1FBB1FEE1FC3
:101FC000FF1FA217B307E407F50720F0A21BB30B0E
:101FD000E40BF50B661F771F881F991F1A9469F78A
:101FE00060957095809590959B01AC01BD01CF01E6
:101FF0000895EE0FFF1F0590F491E02D09940790CE
:0A200000F691E02D0994F894FFCF4B
:10200A0002000000200000000000400014005400FC
:10201A004448543231207465737421004C657665E6
:10202A006C3A002B2D004F4E20004F464600543A82
:10203A0000483A004661696C656420746F207265D5
:10204A0061642066726F6D20444854005265616471
:10205A00206661696C0000000000B204CA0B00002F
:10206A00000067053A050F0517052A05390500001E
:10207A000000460ACA0B9909B209A409240A0D0AE2
:10208A00006E616E00696E66006F7666002E000053
:00000001FF
