:100000000C9417010C9446010C9446010C94460183
:100010000C9446010C9446010C9446010C94460144
:100020000C9446010C9446010C9446010C94460134
:100030000C9446010C9446010C9446010C94460124
:100040000C9446010C9446010C9446010C94460114
:100050000C9446010C9446010C9446010C94AA079A
:100060000C9446010C94180B0C944E0B0C94460106
:100070000C9446010C9446010C9446010C944601E4
:100080000C9446010C9446010C9446010C944601D4
:100090000C9446010C9446010C9446010C9479068C
:1000A0000C9446010C9446010C9446010C944601B4
:1000B0000C9446010C9446010C9446010C944601A4
:1000C0000C9446010C9446010C9446010C94460194
:1000D0000C9446010C9446010C9446010C94460184
:1000E0000C944601D108D408C308C708CD080B09F1
:1000F000D808DC08E208E608EA08F008F408F8087E
:100100000B09FE080209060900000A0B02090C0D82
:100110000E080703040100000000000000000000BA
:1001200000000000000000000000000000000000CF
:10013000000000001211100000000000000000008C
:1001400000000000000000000000000000000102AC
:1001500010202008081020401020408002010201D9
:100160000804020101020408102040808040201091
:1001700008040201800402018040201008040201EA
:100180000804020101020408102040800102040852
:10019000102040800505050507050808080802022B
:1001A00002020A0A08080404040401010101010111
:1001B00001010303030303030303040707070C0CF4
:1001C0000C0C0C0C0C0C02020202060606060606BB
:1001D00006060B0B0B0B0B0B0B0B00002000230078
:1001E000260029002C002F0032000001000003012E
:1001F0000601090100002200250028002B002E0026
:100200003100340002010000050108010B0100006B
:100210002100240027002A002D00300033000101B6
:100220000000040107010A017B02DB05820B112497
:100230001FBECFEFD1E2DEBFCDBF12E0A0E0B2E043
:10024000E0E3F0E200E00BBF02C007900D92A03A9D
:10025000B107D9F724E0A0EAB2E001C01D92A432B0
:10026000B207E1F712E0CEE2D2E000E006C022974A
:100270000109FE010BBF0E941210C832D10780E0B5
:100280000807A9F70E94C60B0C9416100C940000E6
:1002900026E040E855E260E070E087E893E00E94E5
:1002A000B60A60E172E087E893E00E94200C61E00A
:1002B00082E00E940C0982EB92E00E94C10441E0BE
:1002C00060E082EB92E00E9488046DE272E082EBD3
:1002D00092E00E94130C409104025091050260913B
:1002E0000602709107022AE030E082EB92E00E9461
:1002F0008B0C41E068E082EB92E00E94880464E3AA
:1003000072E082EB92E00E94130C41E06AE082EB23
:1003100092E00E9488044091000250910102609195
:100320000202709103022AE030E082EB92E00C942A
:100330008B0CCF93DF93EC0141E06DE082EB92E018
:100340000E948804219719F467E372E002C06BE30E
:1003500072E082EB92E0DF91CF910C94130C8F92BC
:100360009F92AF92BF92CF92DF92EF92FF9284EA78
:1003700092E00E94BB034B015C0160E084EA92E0E2
:100380000E9441036B017C019B01AC010E94E60FBE
:100390008111A1C0A5019401C501B4010E94E60F1D
:1003A000811199C040E060E082EB92E00E948804F5
:1003B0006FE372E082EB92E00E94130C40E062E097
:1003C00082EB92E00E94880422E030E0B701A601AF
:1003D00082EB92E00E94C80D40E068E082EB92E080
:1003E0000E94880462E472E082EB92E00E94130CA7
:1003F00040E06AE082EB92E00E9488046091A002F3
:100400007091A1024AE050E082EB92E00E94D50C8C
:100410008091A2029091A3020197B9F46091040225
:100420007091050280910602909107020E94CF0E02
:100430009B01AC01C701B6010E947F0F18164CF555
:100440001092A3021092A20224C060910402709143
:100450000502809106029091070280900002909020
:100460000102A0900202B0900302681979098A097A
:100470009B090E94CF0E9B01AC01C701B6010E94EF
:10048000300E87FF06C081E090E09093A302809336
:10049000A2028091A2029091A302019731F481E01F
:1004A00090E00E94990161E005C080E090E00E9428
:1004B000990160E082E00E94450968EB7BE080E002
:1004C00090E0FF90EF90DF90CF90BF90AF909F9023
:1004D0008F900C94230865E472E087E893E00E9413
:1004E000200C8091A0029091A10201969093A1020C
:1004F0008093A002CECF0F9300E022E040E167E2BC
:1005000082EB92E00E94060426E046E163E084EA82
:1005100092E00F910C948C02FC0166834783208744
:1005200081E085870895DF92EF92FF920F931F93EA
:10053000CF93DF93EC0161E08E810E9445096AEF61
:1005400070E080E090E00E9423080E94F407098593
:100550001A852B853C85601771078207930720F465
:1005600019861A861B861C862D85211111C00985C6
:100570001A852B853C85DC01CB01801B910BA20BDE
:10058000B30B803D9740A105B10510F481E071C027
:100590001D860E94F40769877A878B879C871C8257
:1005A0001B821A821982188261E08E810E940C09D6
:1005B00060E08E810E94450964E170E080E090E097
:1005C0000E942308F89461E08E810E94450988E228
:1005D00090E00E944B0860E08E810E940C09F12C93
:1005E000D12C81E0E12C082F10E08E810E947B0944
:1005F0008017910741F4E39481E090E00E944B085A
:100600008FEFE812F2CF8E810E947B099FEFE916EF
:10061000C9F023E02F1590F4F0FC10C09D2D9695A5
:1006200096959695FE01E90FF11D9081990F9083A3
:1006300028852E1510F491609083D394F39495E55A
:10064000F912D0CF789427E22D1590F42C8130E068
:100650004881898190E0840F911D4A81840F911D0A
:100660004B81840F911D99272817390709F48ECFE4
:1006700080E0DF91CF911F910F91FF90EF90DF907D
:100680000895CF92DF92EF92FF920F931F93CF9333
:10069000DF93EC01162F0E949302882309F450C0C7
:1006A0008F818B3031F008F44BC08551823078F067
:1006B00047C06A8170E080E090E00E94CD0E112377
:1006C00009F449C020E030E040E151E42AC00A8149
:1006D000602F6F7770E080E090E00E94CF0E20E006
:1006E00030E040E853E40E94830F6B017C016B8192
:1006F00070E080E090E00E94CF0E9B01AC01C7014A
:10070000B6010E94CC0D20E030E040E251E40E94AE
:10071000340E07FD9058112309F120E030E040E14C
:1007200051E40E94830F20E030E040EA50E40E9450
:10073000340E20E030E040E052E40E94CC0D0EC0C8
:100740006DE572E087E893E00E94130C20E030E052
:1007500040EC5FE705C09B01AC0102C09B01AC010E
:10076000B901CA01DF91CF911F910F91FF90EF90D6
:10077000DF90CF900895CF92DF92EF92FF92CF93C8
:10078000DF93EC010E949302882379F18F818B30F3
:1007900029F158F18551823040F5688170E080E0A0
:1007A00090E00E94CD0E20E030E040E853E40E944B
:1007B000830F6B017C01698170E080E090E00E9412
:1007C000CF0E9B01AC01C701B6010E94CC0D20E009
:1007D00030E040E251E40E94340E11C0688170E0C4
:1007E00080E090E00E94CD0E0AC06DE572E087E8DF
:1007F00093E00E94130C60E070E080EC9FE7DF91D3
:10080000CF91FF90EF90DF90CF9008950F93FC0170
:10081000138212828BE692E0918380836483408707
:100820002187028788E083870F9108951F93CF93D4
:10083000DF93EC01162F6C818EEB92E00E94BB05DA
:10084000E091BE02F091BF026B85612B0190F081B7
:10085000E02D8EEB92E009958EEB92E0DF91CF9147
:100860001F910C94D8051F93CF93DF93EC01162FA3
:1008700064600E94160481E090E00E944B08612FA2
:100880006B7FCE010E94160482E390E0DF91CF914E
:100890001F910C944B081F93CF93DF93EC01162FFD
:1008A0000E941604612FCE01DF91CF911F910C940D
:1008B0003304EF92FF921F93CF93DF931F92CDB734
:1008C000DEB77C01162F607F642B49830E944B04A6
:1008D00080E1189FB00111244981642BC7010F905A
:1008E000DF91CF911F91FF90EF900C944B0440E06B
:1008F0000C94590461E00E94770480ED97E00C9419
:100900004B0862E00E94770480ED97E00C944B085E
:10091000CF93DF93CDB7DEB728970FB6F894DEBF3D
:100920000FBECDBF28E0E8E0F2E0DE0111960190B5
:100930000D922A95E1F7FC012185241710F44FEF61
:10094000420FFE013196E40FF11DE40FF11D2081ED
:10095000260F2068622F28960FB6F894DEBF0FBED0
:10096000CDBFDF91CF910C947704FC016681262FD7
:10097000246026836C600C94770441E00E94590443
:100980000895CF93DF93EC018EEB92E00E94B105C6
:100990001D828985823010F098E09D839A85992385
:1009A00029F0813019F48D8184608D8362E370E0D9
:1009B00080E090E00E9423086B85CE010E9416041F
:1009C00068EE73E080E090E00E94230860E3CE01CF
:1009D0000E944B0484E991E10E944B0860E3CE0140
:1009E0000E944B0484E991E10E944B0860E3CE0130
:1009F0000E944B0486E990E00E944B0860E2CE0121
:100A00000E944B046D816062CE010E94770484E0F5
:100A10008E83CE010E94B504CE010E947A0482E04A
:100A20008F8366E0CE010E947704CE01DF91CF91E3
:100A30000C9481048091EE0290E02091EF02821BE1
:100A4000910908952091EF028091EE02281750F449
:100A5000E22FF0E0E051FD4F808190E02F5F209386
:100A6000EF0208958FEF9FEF0895E091EF028091DC
:100A7000EE02E81730F4F0E0E051FD4F808190E0A5
:100A800008958FEF9FEF08950895CF92DF92EF9230
:100A9000FF920F931F93CF93DF937C01CB018A01C9
:100AA0002091CA02222389F0EB016B01C40ED51EEE
:100AB000CC15DD0569F06991D701ED91FC910190AC
:100AC000F081E02DC7010995F3CF642F0E945006F5
:100AD000C801DF91CF911F910F91FF90EF90DF90B0
:100AE000CF900895CF93DF931F92CDB7DEB7698380
:100AF0002091CA022223D1F02091CB02203240F073
:100B000021E030E0FC013383228380E090E015C0D7
:100B10008091CC02E82FF0E0E353FD4F9981908360
:100B20008F5F8093CC028093CB0205C061E0CE0141
:100B300001960E94500681E090E00F90DF91CF91E6
:100B40000895FC011382128248EE53E060E070E0E9
:100B5000448355836683778383E792E09183808320
:100B600008951092EF021092EE021092CC021092B1
:100B7000CB020C94DF0581E08093CA026093ED0202
:100B80001092CC021092CB0208950F93062F21E011
:100B90004091CB026DEC72E08091ED020E94FD0568
:100BA0001092CC021092CB021092CA020F910895BB
:100BB00061E00C94C5058EEB92E00C94A1051092B7
:100BC0007D0381E080937B0310927A0361E084E1EE
:100BD0000E94450961E085E10E944509E9EBF0E0EA
:100BE00080818E7F808380818D7F808388E4809365
:100BF000B80085E48093BC0008950F93413208F05B
:100C000046C090917D039111FCCF92E090937D03BB
:100C100000937B039FEF9093100310925503409332
:100C20005403FB0166E573E0DB019A2F961B9417D2
:100C300018F491919D93F9CF10927C0390917C03CD
:100C4000880F892B80937C0380917A03813041F453
:100C500010927A0380917C038093BB0085EC01C0E5
:100C600085EE8093BC00222321F080917D038230A9
:100C7000E1F3809110038F3F61F080911003803287
:100C800051F080911003803341F483E007C081E08C
:100C900005C080E003C082E001C084E00F910895A8
:100CA000613298F420917D03243089F460933203FB
:100CB000FC0184E393E0DC012A2F281B261718F49B
:100CC00021912D93F9CF80E0089581E0089582E08D
:100CD000089585ED8093BC008091BC0084FDFCCF1D
:100CE00010927D03089585EC8093BC0010927D03E3
:100CF00008951F920F920FB60F9211240BB60F9208
:100D00002F933F934F935F936F937F938F939F9313
:100D1000AF93BF93EF93FF938091B900887F8036A4
:100D200009F49CC068F5883209F45BC090F4803106
:100D300009F454C038F4882309F4F5C0883009F464
:100D40004DC0F5C0883109F44CC0803209F45DC053
:100D5000EEC0803409F468C048F4803309F455C00B
:100D6000883309F0E4C080931003A8C0803509F4EB
:100D70004FC0883509F45DC0883409F0D8C0D5C0AB
:100D8000883909F4C6C0A8F4883709F467C038F474
:100D9000883609F463C0803709F460C0C8C0883859
:100DA00009F4B7C0803909F45FC0803809F0BFC0CA
:100DB0005BC0803B09F485C038F4803A09F466C012
:100DC000883A09F47EC0B3C0803C09F4A6C0883CD0
:100DD00009F4A3C0883B09F489C0A9C080917C03B1
:100DE00010C09091550380915403981770F5E091CD
:100DF000550381E08E0F80935503F0E0EA5AFC4FD3
:100E000080818093BB0085EC85C0809310038DC0EA
:100E1000E091550381E08E0F809355038091BB00D4
:100E2000F0E0EA5AFC4F808390915503809154037F
:100E30006DC0E091550381E08E0F80935503809142
:100E4000BB00F0E0EA5AFC4F808380917B03811164
:100E50006CC081E080937A0384EA60C083E0809371
:100E60007D0310921103CFCF80911103803208F0DF
:100E700050C0E091110381E08E0F809311038091A7
:100E8000BB00F0E0EE5EFC4F8083BDCF809111038C
:100E9000803230F4E0911103F0E0EE5EFC4F1082FE
:100EA0000E9469066091110370E0E0917603F09171
:100EB000770382E193E00995109211030E94730673
:100EC00036C084E080937D03109233031092320386
:100ED000E0917803F09179030995809132038111B3
:100EE00005C081E08093320310923403E091330314
:100EF00081E08E0F80933303F0E0EC5CFC4F808147
:100F00008093BB009091330380913203981708F4CB
:100F10007ACF85E88093BC000AC085EC8093BC0042
:100F200010927D0304C0109210030E946906FF9185
:100F3000EF91BF91AF919F918F917F916F915F9151
:100F40004F913F912F910F900BBE0F900FBE0F90BE
:100F50001F9018951F920F920FB60F9211242F9386
:100F60003F938F939F93AF93BF9380917F03909113
:100F70008003A0918103B091820330917E0323E02E
:100F8000230F2D3720F40196A11DB11D05C026E8C1
:100F9000230F0296A11DB11D20937E0380937F0332
:100FA00090938003A0938103B09382038091830385
:100FB00090918403A0918503B09186030196A11DB1
:100FC000B11D8093830390938403A0938503B09312
:100FD0008603BF91AF919F918F913F912F910F9079
:100FE0000FBE0F901F9018952FB7F89460917F0354
:100FF0007091800380918103909182032FBF0895A7
:101000003FB7F8948091830390918403A091850366
:10101000B091860326B5A89B05C02F3F19F0019615
:10102000A11DB11D3FBF6627782F892F9A2F620F10
:10103000711D811D911D42E0660F771F881F991F4A
:101040004A95D1F70895CF92DF92EF92FF92CF9316
:10105000DF936B017C010E940008EB01C114D104F5
:10106000E104F10489F00E94CA0D0E9400086C1B83
:101070007D0B683E734090F381E0C81AD108E10807
:10108000F108C851DC4FEACFDF91CF91FF90EF908C
:10109000DF90CF9008958230910538F0880F991F26
:1010A000880F991F05970197F1F70895789484B5F3
:1010B000826084BD84B5816084BD85B5826085BD54
:1010C00085B5816085BDEEE6F0E08081816080833A
:1010D000E1E8F0E01082808182608083808181601D
:1010E0008083E0E8F0E0808181608083E1EBF0E0E4
:1010F000808184608083E0EBF0E080818160808388
:10110000E1E9F0E08081826080838081816080837A
:10111000E0E9F0E0808181608083E1EAF0E08081B5
:1011200082608083808181608083E0EAF0E080815A
:1011300081608083E1E2F1E0808182608083808150
:1011400081608083E0E2F1E0808181608083EAE772
:10115000F0E08081846080838081826080838081F0
:10116000816080838081806880831092C1000895AF
:1011700090E0FC013197E231F10508F04CC0EE58E7
:10118000FF4F0C940C10809180008F7703C08091EA
:1011900080008F7D80938000089580918000877FFC
:1011A000F9CF84B58F7702C084B58F7D84BD089553
:1011B0008091B0008F7703C08091B0008F7D8093C5
:1011C000B0000895809190008F7707C080919000C3
:1011D0008F7D03C080919000877F80939000089559
:1011E0008091A0008F7707C08091A0008F7D03C001
:1011F0008091A000877F8093A000089580912001B6
:101200008F7707C0809120018F7D03C080912001DE
:10121000877F809320010895CF93DF9390E0FC01B6
:10122000E25BFE4F2491FC01EC56FE4F8491882333
:1012300049F190E0880F991FFC01E25FFD4FA591F5
:10124000B4918C509E4FFC01C591D4919FB7611110
:1012500008C0F8948C91209582238C9388818223F6
:101260000AC0623051F4F8948C91322F3095832368
:101270008C938881822B888304C0F8948C91822B74
:101280008C939FBFDF91CF9108950F931F93CF93BE
:10129000DF931F92CDB7DEB7282F30E0F901E85F6A
:1012A000FE4F8491F901E25BFE4F1491F901EC5677
:1012B000FE4F04910023C9F0882321F069830E9426
:1012C000B8086981E02FF0E0EE0FFF1FEC50FE4FF1
:1012D000A591B4919FB7F8948C91611103C01095BA
:1012E000812301C0812B8C939FBF0F90DF91CF9101
:1012F0001F910F910895CF93DF93282F30E0F901CC
:10130000E85FFE4F8491F901E25BFE4FD491F90151
:10131000EC56FE4FC491CC2391F081110E94B80885
:10132000EC2FF0E0EE0FFF1FE652FE4FA591B491B7
:101330002C912D2381E090E021F480E002C080E038
:1013400090E0DF91CF910895FC01818D228D90E096
:10135000805C9F4F821B91098F7399270895FC0130
:10136000918D828D981731F0828DE80FF11D858D5A
:1013700090E008958FEF9FEF0895FC01918D828D8D
:10138000981761F0828DDF01A80FB11D5D968C91D9
:10139000928D9F5F9F73928F90E008958FEF9FEFE4
:1013A000089588E79BE0892B41F080E090E0892B4D
:1013B00021F00E94780B811125C080E090E0892BFC
:1013C00041F080E090E0892B21F00E940000811123
:1013D0001CC080E090E0892B41F080E090E0892BF8
:1013E00021F00E940000811113C080E090E0892B61
:1013F000A1F080E090E0892B81F00E940000811133
:101400000AC008950E940000D8CF0E940000E1CFDA
:101410000E940000EACF0C9400000895FC01848D26
:10142000DF01A80FB11DA35ABF4F2C91848D90E00E
:1014300001968F739927848FA689B7892C93A089E9
:10144000B1898C9180648C93938D848D981306C0A0
:101450000288F389E02D80818F7D80830895CF936A
:10146000DF93EC01888D8823C9F0EA89FB898081AC
:1014700085FD05C0A889B9898C9186FD0FC00FB67E
:1014800007FCF5CF808185FFF2CFA889B9898C91BF
:1014900085FFEDCFCE010E940E0AE7CFDF91CF91FD
:1014A0000895CF92DF92FF920F931F93CF93DF9314
:1014B0001F92CDB7DEB76C0181E0D60158968C93B0
:1014C00058975B969C915B975C968C915C97981370
:1014D00007C05096ED91FC915197808185FD2EC0FB
:1014E000F601038D10E00F5F1F4F0F731127F02ED1
:1014F000F601848DF81211C00FB607FCF9CFD601A2
:101500005096ED91FC915197808185FFF1CFC601F6
:1015100069830E940E0A6981EBCF838DE80FF11D6C
:10152000E35AFF4F6083D6015B960C935B9752960C
:10153000ED91FC915397808180620CC0D601569644
:10154000ED91FC91579760835096ED91FC915197E6
:1015500080818064808381E090E00F90DF91CF9163
:101560001F910F91FF90DF90CF900895BF92CF927F
:10157000DF92EF92FF92CF93DF93EC016A017B0140
:10158000B22EE889F98982E08083411581EE5807FF
:1015900061057105A1F060E079E08DE390E0A701BD
:1015A00096010E94EA0F21503109410951095695CF
:1015B000479537952795211580E1380798F0E889F8
:1015C000F989108260E874E88EE190E0A701960145
:1015D0000E94EA0F2150310941095109569547955A
:1015E00037952795EC85FD853083EE85FF85208333
:1015F000188EEC89FD89B082EA89FB89808180613F
:101600008083EA89FB89808188608083EA89FB89FD
:10161000808180688083EA89FB8980818F7D8083D7
:10162000DF91CF91FF90EF90DF90CF90BF90089522
:101630001F920F920FB60F9211240BB60F922F9399
:101640008F939F93EF93FF93E0919703F09198030B
:101650008081E0919D03F0919E0382FD12C09081F4
:101660008091A0038F5F8F732091A103821751F0A7
:10167000E091A003F0E0E957FC4F958F8093A00321
:1016800001C08081FF91EF919F918F912F910F90D9
:101690000BBE0F900FBE0F901F9018951F920F92C8
:1016A0000FB60F9211240BB60F922F933F934F93C7
:1016B0005F936F937F938F939F93AF93BF93EF93BA
:1016C000FF9387E893E00E940E0AFF91EF91BF918C
:1016D000AF919F918F917F916F915F914F913F91CA
:1016E0002F910F900BBE0F900FBE0F901F9018956B
:1016F00087E893E00E94A40921E0892B09F420E007
:10170000822F089510928A031092890388EE93E045
:10171000A0E0B0E080938B0390938C03A0938D03A3
:10172000B0938E0383E892E09093880380938703BD
:1017300085EC90E0909394038093930384EC90E085
:10174000909396038093950380EC90E09093980398
:101750008093970381EC90E090939A038093990390
:1017600082EC90E090939C0380939B0386EC90E046
:1017700090939E0380939D031092A0031092A10367
:101780001092A2031092A303089508950E94560890
:101790000E94C50B0E944801C1EDD9E00E94AF0133
:1017A0002097E1F30E94D109F9CFCF92DF92EF9217
:1017B000FF920F931F93CF93DF936C017A01EB019C
:1017C000E60EF71E00E010E0CE15DF0561F069912E
:1017D000D601ED91FC910190F081E02DC6010995B3
:1017E000080F191FF1CFC801DF91CF911F910F9101
:1017F000FF90EF90DF90CF9008956115710581F013
:10180000DB010D900020E9F7AD0141505109461B65
:10181000570BDC01ED91FC910280F381E02D0994DE
:1018200080E090E008950C94FD0BDC01ED91FC91BB
:101830000190F081E02D09946FE872E00C94FD0BAB
:101840000F931F93CF93DF93EC010E94FD0B8C014C
:10185000CE010E941C0C800F911FDF91CF911F9130
:101860000F9108958F929F92AF92BF92CF92DF9285
:10187000EF92FF920F931F93CF93DF93CDB7DEB715
:10188000A1970FB6F894DEBF0FBECDBF7C01C42E6A
:10189000E52FCB01D22E19A221E02D1510F02AE060
:1018A000D22E8E010F5D1F4F8D2C912CA12CB12CAF
:1018B0006C2D7E2FA50194010E94EA0F8C2DD29EE3
:1018C00080191124015011098A3014F4805D01C07F
:1018D000895CF8018083211531054105510521F00E
:1018E000C22EE32FCA01E4CFB801C7010E94FD0B4D
:1018F000A1960FB6F894DEBF0FBECDBFDF91CF919A
:101900001F910F91FF90EF90DF90CF90BF90AF901D
:101910009F908F900895CF92DF92EF92FF920F9356
:101920001F93CF93DF93EC016A017B0121153105F1
:1019300079F4E881F9810190F081E02D642FDF9145
:10194000CF911F910F91FF90EF90DF90CF9009946E
:101950002A303105E9F477FF1AC06DE20E94150CB8
:101960008C0144275527BA014C195D096E097F097E
:101970002AE0CE010E94320C800F911FDF91CF919F
:101980001F910F91FF90EF90DF90CF9008952AE084
:10199000B701A601CE01DF91CF911F910F91FF906A
:1019A000EF90DF90CF900C94320C9A01AB01662738
:1019B00057FD6095762F0C948B0C4F925F926F922F
:1019C0007F928F929F92AF92BF92CF92DF92EF92CF
:1019D000FF920F931F93CF93DF93EC016A017B017A
:1019E000B22E9A01AB01C701B6010E94E60F88230F
:1019F00019F062E972E027C026013701E89477F810
:101A00002FEF3FEF4FE75FE7C301B2010E94E60F00
:101A100081110DC02FEF3FEF4FE75FE7C301B20128
:101A20000E94300E18161CF466E972E00CC02FEF0D
:101A30003FEF4FE75FE4C701B6010E947F0F181622
:101A4000ACF46AE972E0CE01DF91CF911F910F9162
:101A5000FF90EF90DF90CF90BF90AF909F908F90CE
:101A60007F906F905F904F900C94FD0B2FEF3FEFA6
:101A70004FE75FECC701B6010E94300E87FDE1CF52
:101A800020E030E0A901C701B6010E94300E87FFB7
:101A90000AC06DE2CE010E94150C8C01F7FAF09499
:101AA000F7F8F09402C000E010E0A12C60E070E0D4
:101AB00080E09FE3AB1441F020E030E040E251E4ED
:101AC0000E94340EA394F6CF9B01AC01C701B6016E
:101AD0000E94CC0D6B017C010E94A10E2B013C01E8
:101AE0000E94CD0E9B01AC01C701B6010E94CB0D37
:101AF0006B017C012AE0B301A201CE010E94320CED
:101B0000080F191FBB2039F06EE972E0CE010E9468
:101B1000FD0B080F191F7B2C772041F120E030E0EE
:101B200040E251E4C701B6010E94830F6B017C01C2
:101B30000E949C0E4B01AA2497FCA094BA2C2AE088
:101B400030E0B501A401CE010E948B0C080F191FD3
:101B5000C501B4010E94CF0E9B01AC01C701B601C3
:101B60000E94CB0D6B017C017A94D6CFC801DF9126
:101B7000CF911F910F91FF90EF90DF90CF90BF908A
:101B8000AF909F908F907F906F905F904F9008954F
:101B90000C94DD0C08955058BB27AA270ED075C1B0
:101BA00066D130F06BD120F031F49F3F11F41EF478
:101BB0005BC10EF4E095E7FB51C1E92F77D180F3CB
:101BC000BA17620773078407950718F071F49EF53A
:101BD0008FC10EF4E0950B2EBA2FA02D0B01B90189
:101BE00090010C01CA01A0011124FF27591B99F093
:101BF000593F50F4503E68F11A16F040A22F232F9F
:101C0000342F4427585FF3CF469537952795A795EE
:101C1000F0405395C9F77EF41F16BA0B620B730B95
:101C2000840BBAF09150A1F0FF0FBB1F661F771F06
:101C3000881FC2F70EC0BA0F621F731F841F48F4BB
:101C4000879577956795B795F7959E3F08F0B3CF41
:101C50009395880F08F09927EE0F9795879508952B
:101C6000D9D008F481E008950CD00FC107D140F01D
:101C7000FED030F021F45F3F19F0F0C0511139C1AE
:101C8000F3C014D198F39923C9F35523B1F3951BED
:101C9000550BBB27AA2762177307840738F09F5F8D
:101CA0005F4F220F331F441FAA1FA9F333D00E2EFC
:101CB0003AF0E0E830D091505040E695001CCAF769
:101CC00029D0FE2F27D0660F771F881FBB1F26172E
:101CD00037074807AB07B0E809F0BB0B802DBF0101
:101CE000FF2793585F4F2AF09E3F510568F0B6C01A
:101CF00000C15F3FECF3983EDCF3869577956795DE
:101D0000B795F7959F5FC9F7880F911D96958795B1
:101D100097F90895E1E0660F771F881FBB1F6217D0
:101D200073078407BA0720F0621B730B840BBA0B8E
:101D3000EE1F88F7E095089504D06894B111D9C0DA
:101D40000895BCD088F09F5790F0B92F9927B751CC
:101D5000A0F0D1F0660F771F881F991F1AF0BA956F
:101D6000C9F712C0B13081F0C3D0B1E00895C0C04E
:101D7000672F782F8827B85F39F0B93FCCF3869565
:101D800077956795B395D9F73EF4909580957095C2
:101D900061957F4F8F4F9F4F0895E89409C097FB3F
:101DA0003EF490958095709561957F4F8F4F9F4F32
:101DB0009923A9F0F92F96E9BB279395F695879576
:101DC00077956795B795F111F8CFFAF4BB0F11F439
:101DD00060FF1BC06F5F7F4F8F4F9F4F16C08823E0
:101DE00011F096E911C0772321F09EE8872F762F16
:101DF00005C0662371F096E8862F70E060E02AF057
:101E00009A95660F771F881FDAF7880F9695879542
:101E100097F90895990F0008550FAA0BE0E8FEEF17
:101E200016161706E807F907C0F012161306E4079E
:101E3000F50798F0621B730B840B950B39F40A2697
:101E400061F0232B242B252B21F408950A2609F475
:101E5000A140A6958FEF811D811D089597F99F6779
:101E600080E870E060E008959FEF80EC0895002422
:101E70000A941616170618060906089500240A94EF
:101E800012161306140605060895092E0394000C75
:101E900011F4882352F0BB0F40F4BF2B11F460FF04
:101EA00004C06F5F7F4F8F4F9F4F089557FD90582D
:101EB000440F551F59F05F3F71F04795880F97FB0E
:101EC000991F61F09F3F79F08795089512161306C8
:101ED0001406551FF2CF4695F1DF08C016161706F7
:101EE0001806991FF1CF869571056105089408952C
:101EF000E894BB2766277727CB0197F908958ADFF7
:101F000008F48FEF08950BD0C0CFB1DF28F0B6DF13
:101F100018F0952309F0A2CFA7CF1124EACFC6DF8E
:101F2000A0F3959FD1F3950F50E0551F629FF001EC
:101F3000729FBB27F00DB11D639FAA27F00DB11D45
:101F4000AA1F649F6627B00DA11D661F829F2227CE
:101F5000B00DA11D621F739FB00DA11D621F839F55
:101F6000A00D611D221F749F3327A00D611D231F2B
:101F7000849F600D211D822F762F6A2F11249F5779
:101F800050408AF0E1F088234AF0EE0FFF1FBB1F9C
:101F9000661F771F881F91505040A9F79E3F51053B
:101FA00070F05CCFA6CF5F3FECF3983EDCF38695F4
:101FB00077956795B795F795E7959F5FC1F7FE2BE6
:101FC000880F911D9695879597F9089523DF880BC3
:101FD000990B0895A1E21A2EAA1BBB1BFD010DC08F
:101FE000AA1FBB1FEE1FFF1FA217B307E407F507C9
:101FF00020F0A21BB30BE40BF50B661F771F881FA5
:10200000991F1A9469F760957095809590959B013A
:10201000AC01BD01CF010895EE0FFF1F0590F491B3
:10202000E02D09940790F691E02D0994F894FFCFE4
:1020300002000000200000000000400014005400D6
:1020400044656879647261746F72206175746F6D34
:1020500061746F722073746172746564004C65768C
:10206000656C3A002B2D004F4E20004F4646005421
:102070003A00453A004661696C656420746F2072CD
:102080006561642066726F6D20444854005265613A
:1020900064206661696C0000000000BD04D50B007F
:1020A000000000720545051A0522053505440500A6
:1020B000000000510AD50BA409BD09AF092F0A0D74
:1020C0000A006E616E00696E66006F7666002E0013
:00000001FF
