:100000000C9443010C9474010C9474010C947401CD
:100010000C9474010C9474010C9474010C9474018C
:100020000C9474010C9474010C9474010C9474017C
:100030000C9474010C9474010C9474010C9474016C
:100040000C9474010C9474010C9474010C9474015C
:100050000C9474010C9474010C9474010C945E055E
:100060000C9474010C945E080C9494080C94740124
:100070000C9474010C9474010C9474010C9474012C
:100080000C9474010C9474010C9474010C9474011C
:100090000C9474010C9474010C9474010C942D0450
:1000A0000C9474010C9474010C9474010C947401FC
:1000B0000C9474010C9474010C9474010C947401EC
:1000C0000C9474010C9474010C9474010C947401DC
:1000D0000C9474010C9474010C9474010C947401CC
:1000E0000C94740179067C066B066F067506B306E0
:1000F000800684068A068E06920698069C06A0064E
:10010000B306A606AA06AE060C94EA060C94F902FB
:100110000C9484060C9417070C9498060C94800693
:100120000C94C8080C948E060C948F030C94260330
:100130000C949C060C9475060C94AA060C946B0601
:100140000C94E9020C94CE020C94A2010C9471025E
:100150000C941B090C9479060C94F5060C94BE08BB
:100160000C9492060C948A060C94A6060C946F06C6
:100170000C9403070C9497070C94A0060C94750735
:100180000C94B3060C94D6020C947C060C94F802E2
:100190000C94AE0600000A0B02090C0D0E080703B2
:1001A000040100000000000000000000000000004A
:1001B000000000000000000000000000000000003F
:1001C00012111000000000000000000000000000FC
:1001D00000000000000000000000010210202008C4
:1001E0000810204010204080020102010804020192
:1001F0000102040810204080804020100804020101
:100200008004020180402010080402010804020159
:1002100001020408102040800102040810204080E0
:1002200005050505070508080808020202020A0A72
:100230000808040404040101010101010101030390
:10024000030303030303040707070C0C0C0C0C0C3B
:100250000C0C0202020206060606060606060B0B38
:100260000B0B0B0B0B0B00002200250028002B00B2
:100270002E003100340002010000050108010B01CD
:10028000A2018F03C80811241FBECFEFD1E2DEBF49
:10029000CDBF00E00CBF12E0A0E0B2E0E0E4F3E18B
:1002A00000E00BBF02C007900D92A637B107D9F747
:1002B00023E0A6E7B2E001C01D92A63FB207E1F736
:1002C00012E0C6E8D2E000E006C022970109FE0174
:1002D0000BBF0E949A09C038D10780E00807A9F730
:1002E0000E940C090C949E090C94000026E040E842
:1002F00055E260E070E089E593E00E94FC0768E069
:1003000072E089E593E00E945F0984E892E00E9430
:10031000750240E060E084E892E00E943C0264E103
:1003200072E084E892E00E94590941E060E084E8CC
:1003300092E00E943C0268E272E084E892E00C9451
:10034000590908950F9300E022E040E167E284E854
:1003500092E00E94BA0126E046E162E086E792E080
:100360000F910C94B301FC0166834783208781E0E1
:10037000858708950F93FC011382128281E492E035
:1003800091838083648340872187028788E0838705
:100390000F9108951F93CF93DF93EC01162F6C817B
:1003A00080E992E00E946F03E0919002F091910247
:1003B0006B85612B0190F081E02D80E992E0199529
:1003C00080E992E0DF91CF911F910C948C031F93F1
:1003D000CF93DF93EC01162F64600E94CA0181E085
:1003E00090E00E94F305612F6B7FCE010E94CA014D
:1003F00082E390E0DF91CF911F910C94F3051F935E
:10040000CF93DF93EC01162F0E94CA01612FCE011A
:10041000DF91CF911F910C94E701EF92FF921F9310
:10042000CF93DF931F92CDB7DEB77C01162F607F8D
:10043000642B49830E94FF0180E1189FB0011124C1
:100440004981642BC7010F90DF91CF911F91FF90DD
:10045000EF900C94FF0140E00C940D0261E00E94CB
:100460002B0280ED97E00C94F30562E00E942B02D2
:1004700080ED97E00C94F305CF93DF93CDB7DEB713
:1004800028970FB6F894DEBF0FBECDBF28E0E0E09E
:10049000F2E0DE01119601900D922A95E1F7FC0140
:1004A0002185241710F44FEF420FFE013196E40F1F
:1004B000F11DE40FF11D2081260F2068622F289680
:1004C0000FB6F894DEBF0FBECDBFDF91CF910C9475
:1004D0002B02FC016681262F246026836C600C941D
:1004E0002B0241E00E940D020895CF93DF93EC01AF
:1004F00080E992E00E9465031D828985823010F0B8
:1005000098E09D839A85992329F0813019F48D8193
:1005100084608D8362E370E080E090E00E94CB0510
:100520006B85CE010E94CA0168EE73E080E090E026
:100530000E94CB0560E3CE010E94FF0184E991E1B6
:100540000E94F30560E3CE010E94FF0184E991E17E
:100550000E94F30560E3CE010E94FF0186E990E06E
:100560000E94F30560E2CE010E94FF016D8160628E
:10057000CE010E942B0284E08E83CE010E9469028C
:10058000CE010E942E0282E08F8366E0CE010E949F
:100590002B02CE01DF91CF910C9435028091C002E5
:1005A00090E02091C102821B910908952091C1021F
:1005B0008091C002281750F4E22FF0E0EE53FD4F77
:1005C000808190E02F5F2093C10208958FEF9FEF0D
:1005D0000895E091C1028091C002E81730F4F0E084
:1005E000EE53FD4F808190E008958FEF9FEF0895C7
:1005F0000895CF92DF92EF92FF920F931F93CF93C4
:10060000DF937C01CB018A0120919C02222389F097
:10061000EB016B01C40ED51ECC15DD0569F06991A7
:10062000D701ED91FC910190F081E02DC701199562
:10063000F3CF642F0E940404C801DF91CF911F9172
:100640000F91FF90EF90DF90CF900895CF93DF93BD
:100650001F92CDB7DEB7698320919C022223D1F08F
:1006600020919D02203240F021E030E0FC013383F4
:10067000228380E090E015C080919E02E82FF0E098
:10068000E156FD4F998190838F5F80939E02809306
:100690009D0205C061E0CE0101960E94040481E044
:1006A00090E00F90DF91CF910895FC0113821282A8
:1006B00048EE53E060E070E04483558366837783BF
:1006C00089E492E09183808308951092C102109290
:1006D000C00210929E0210929D020C94930381E03E
:1006E00080939C026093BF0210929E0210929D0222
:1006F00008950F93062F21E040919D026FE972E06B
:100700008091BF020E94B10310929E0210929D023E
:1007100010929C020F91089561E00C94790380E996
:1007200092E00C94550310924F0381E080934D03A7
:1007300010924C0361E084E10E94B40661E085E11F
:100740000E94B406E9EBF0E080818E7F8083808197
:100750008D7F808388E48093B80085E48093BC001B
:1007600008950F93413208F046C090914F039111C4
:10077000FCCF92E090934F0300934D039FEF909333
:10078000E2021092270340932603FB0168E273E024
:10079000DB019A2F961B941718F491919D93F9CF32
:1007A00010924E0390914E03880F892B80934E0335
:1007B00080914C03813041F410924C0380914E03A0
:1007C0008093BB0085EC01C085EE8093BC002223A2
:1007D00021F080914F038230E1F38091E2028F3F5C
:1007E00061F08091E202803251F08091E202803328
:1007F00041F483E007C081E005C080E003C082E0EF
:1008000001C084E00F910895613298F420914F0364
:10081000243089F460930403FC0186E093E0DC015A
:100820002A2F281B261718F421912D93F9CF80E049
:10083000089581E0089582E0089585ED8093BC00DD
:100840008091BC0084FDFCCF10924F03089585EC8D
:100850008093BC0010924F0308951F920F920FB621
:100860000F9211240BB60F922F933F934F935F93E8
:100870006F937F938F939F93AF93BF93EF93FF9368
:100880008091B900887F803609F49CC068F5883271
:1008900009F45BC090F4803109F454C038F4882323
:1008A00009F4F5C0883009F44DC0F5C0883109F469
:1008B0004CC0803209F45DC0EEC0803409F468C0D9
:1008C00048F4803309F455C0883309F0E4C08093BC
:1008D000E202A8C0803509F44FC0883509F45DC034
:1008E000883409F0D8C0D5C0883909F4C6C0A8F446
:1008F000883709F467C038F4883609F463C0803754
:1009000009F460C0C8C0883809F4B7C0803909F458
:100910005FC0803809F0BFC05BC0803B09F485C070
:1009200038F4803A09F466C0883A09F47EC0B3C04E
:10093000803C09F4A6C0883C09F4A3C0883B09F4B4
:1009400089C0A9C080914E0310C090912703809167
:100950002603981770F5E091270381E08E0F8093AE
:100960002703F0E0E85DFC4F80818093BB0085ECBD
:1009700085C08093E2028DC0E091270381E08E0F55
:10098000809327038091BB00F0E0E85DFC4F8083FB
:1009900090912703809126036DC0E091270381E0A9
:1009A0008E0F809327038091BB00F0E0E85DFC4F41
:1009B000808380914D0381116CC081E080934C0352
:1009C00084EA60C083E080934F031092E302CFCFAC
:1009D0008091E302803208F050C0E091E30281E0B0
:1009E0008E0F8093E3028091BB00F0E0EC51FD4F4D
:1009F0008083BDCF8091E302803230F4E091E30246
:100A0000F0E0EC51FD4F10820E941D046091E30262
:100A100070E0E0914803F091490384EE92E019956B
:100A20001092E3020E94270436C084E080934F03B3
:100A30001092050310920403E0914A03F0914B03D6
:100A4000199580910403811105C081E0809304030E
:100A500010920603E091050381E08E0F8093050359
:100A6000F0E0EA5FFC4F80818093BB00909105032A
:100A700080910403981708F47ACF85E88093BC002E
:100A80000AC085EC8093BC0010924F0304C0109202
:100A9000E2020E941D04FF91EF91BF91AF919F91DF
:100AA0008F917F916F915F914F913F912F910F9017
:100AB0000BBE0F900FBE0F901F9018951F920F92B4
:100AC0000FB60F9211242F933F938F939F93AF9361
:100AD000BF938091510390915203A0915303B09121
:100AE00054033091500323E0230F2D3720F4019657
:100AF000A11DB11D05C026E8230F0296A11DB11D41
:100B0000209350038093510390935203A093530377
:100B1000B09354038091550390915603A0915703CD
:100B2000B09158030196A11DB11D80935503909378
:100B30005603A0935703B0935803BF91AF919F9171
:100B40008F913F912F910F900FBE0F901F9018958E
:100B50003FB7F8948091550390915603A0915703A5
:100B6000B091580326B5A89B05C02F3F19F00196F8
:100B7000A11DB11D3FBF6627782F892F9A2F620FC5
:100B8000711D811D911D42E0660F771F881F991FFF
:100B90004A95D1F70895CF92DF92EF92FF92CF93CB
:100BA000DF936B017C010E94A805EB01C114D10405
:100BB000E104F10489F00E9471090E94A8056C1BF0
:100BC0007D0B683E734090F381E0C81AD108E108BC
:100BD000F108C851DC4FEACFDF91CF91FF90EF9041
:100BE000DF90CF9008958230910538F0880F991FDB
:100BF000880F991F05970197F1F70895789484B5A8
:100C0000826084BD84B5816084BD85B5826085BD08
:100C100085B5816085BDEEE6F0E0808181608083EE
:100C2000E1E8F0E0108280818260808380818160D1
:100C30008083E0E8F0E0808181608083E1EBF0E098
:100C4000808184608083E0EBF0E08081816080833C
:100C5000E1E9F0E08081826080838081816080832F
:100C6000E0E9F0E0808181608083E1EAF0E080816A
:100C700082608083808181608083E0EAF0E080810F
:100C800081608083E1E2F1E0808182608083808105
:100C900081608083E0E2F1E0808181608083EAE727
:100CA000F0E08081846080838081826080838081A5
:100CB000816080838081806880831092C100089564
:100CC00090E0FC013197E231F10508F04CC0EE589C
:100CD000FF4F0C949409809180008F7703C080911E
:100CE00080008F7D80938000089580918000877FB1
:100CF000F9CF84B58F7702C084B58F7D84BD089508
:100D00008091B0008F7703C08091B0008F7D809379
:100D1000B0000895809190008F7707C08091900077
:100D20008F7D03C080919000877F8093900008950D
:100D30008091A0008F7707C08091A0008F7D03C0B5
:100D40008091A000877F8093A0000895809120016A
:100D50008F7707C0809120018F7D03C08091200193
:100D6000877F8093200108950F931F93CF93DF9384
:100D70001F92CDB7DEB7282F30E0F901EC56FE4FB9
:100D80008491F901E652FE4F1491F901E05EFD4FA6
:100D900004910023C9F0882321F069830E94600632
:100DA0006981E02FF0E0EE0FFF1FEA59FD4FA5919A
:100DB000B4919FB7F8948C91611103C01095812371
:100DC00001C0812B8C939FBF0F90DF91CF911F911A
:100DD0000F910895FC01818D228D90E0805C9F4FE2
:100DE000821B91098F7399270895FC01918D828D43
:100DF000981731F0828DE80FF11D858D90E00895F0
:100E00008FEF9FEF0895FC01918D828D981761F00F
:100E1000828DDF01A80FB11D5D968C91928D9F5F31
:100E20009F73928F90E008958FEF9FEF08958EEB60
:100E300098E0892B41F080E090E0892B21F00E941E
:100E4000BE08811125C080E090E0892B41F080E050
:100E500090E0892B21F00E94000081111CC080E0ED
:100E600090E0892B41F080E090E0892B21F00E94F6
:100E70000000811113C080E090E0892BA1F080E098
:100E800090E0892B81F00E94000081110AC0089532
:100E90000E940000D8CF0E940000E1CF0E94000015
:100EA000EACF0C9400000895FC01848DDF01A80FA7
:100EB000B11DA35ABF4F2C91848D90E001968F7382
:100EC0009927848FA689B7892C93A089B1898C91A1
:100ED00080648C93938D848D981306C00288F38967
:100EE000E02D80818F7D80830895CF93DF93EC0187
:100EF000888D8823C9F0EA89FB89808185FD05C03A
:100F0000A889B9898C9186FD0FC00FB607FCF5CF73
:100F1000808185FFF2CFA889B9898C9185FFEDCFBB
:100F2000CE010E945407E7CFDF91CF910895CF9271
:100F3000DF92FF920F931F93CF93DF931F92CDB752
:100F4000DEB76C0181E0D60158968C9358975B967A
:100F50009C915B975C968C915C97981307C0509618
:100F6000ED91FC915197808185FD2EC0F601038D96
:100F700010E00F5F1F4F0F731127F02EF601848DC5
:100F8000F81211C00FB607FCF9CFD6015096ED91BB
:100F9000FC915197808185FFF1CFC60169830E9442
:100FA00054076981EBCF838DE80FF11DE35AFF4FA2
:100FB0006083D6015B960C935B975296ED91FC9102
:100FC0005397808180620CC0D6015696ED91FC91BA
:100FD000579760835096ED91FC9151978081806482
:100FE000808381E090E00F90DF91CF911F910F916E
:100FF000FF90DF90CF900895BF92CF92DF92EF9253
:10100000FF92CF93DF93EC016A017B01B22EE88956
:10101000F98982E08083411581EE580761057105E9
:10102000A1F060E079E08DE390E0A70196010E94D5
:101030007209215031094109510956954795379553
:101040002795211580E1380798F0E889F989108201
:1010500060E874E88EE190E0A70196010E947209B1
:1010600021503109410951095695479537952795E2
:10107000EC85FD853083EE85FF852083188EEC8915
:10108000FD89B082EA89FB89808180618083EA8959
:10109000FB89808188608083EA89FB898081806800
:1010A0008083EA89FB8980818F7D8083DF91CF9166
:1010B000FF90EF90DF90CF90BF9008951F920F9216
:1010C0000FB60F9211240BB60F922F938F939F930D
:1010D000EF93FF93E0916903F0916A038081E091BF
:1010E0006F03F091700382FD12C0908180917203B2
:1010F0008F5F8F7320917303821751F0E091720319
:10110000F0E0E75AFC4F958F8093720301C0808115
:10111000FF91EF919F918F912F910F900BBE0F90A8
:101120000FBE0F901F9018951F920F920FB60F923F
:1011300011240BB60F922F933F934F935F936F93AE
:101140007F938F939F93AF93BF93EF93FF9389E523
:1011500093E00E945407FF91EF91BF91AF919F914F
:101160008F917F916F915F914F913F912F910F9050
:101170000BBE0F900FBE0F901F90189589E593E05E
:101180000E94EA0621E0892B09F420E0822F0895CD
:1011900010925C0310925B0388EE93E0A0E0B0E055
:1011A00080935D0390935E03A0935F03B09360030D
:1011B00089E592E090935A038093590385EC90E07F
:1011C000909366038093650384EC90E090936803AA
:1011D0008093670380EC90E090936A0380936903A7
:1011E00081EC90E090936C0380936B0382EC90E031
:1011F00090936E0380936D0386EC90E09093700360
:1012000080936F0310927203109273031092740311
:1012100010927503089508950E94FE050E940B091F
:101220000E947601C7E1D7E00E94A1012097E1F377
:101230000E941707F9CFCF92DF92EF92FF920F93A0
:101240001F93CF93DF936C017A01EB01E60EF71E3B
:1012500000E010E0CE15DF0561F06991D601ED9157
:10126000FC910190F081E02DC6011995080F191F1E
:10127000F1CFC801DF91CF911F910F91FF90EF90B7
:10128000DF90CF9008956115710581F0DB010D901D
:101290000020E9F7AD0141505109461B570BDC0115
:1012A000ED91FC910280F381E02D199480E090E0B3
:1012B00008950C94430965E672E00C9443090F937A
:1012C0001F93CF93DF93EC010E9443098C01CE0161
:1012D0000E945B09800F911FDF91CF911F910F91A9
:1012E00008950895A1E21A2EAA1BBB1BFD010DC093
:1012F000AA1FBB1FEE1FFF1FA217B307E407F507C6
:1013000020F0A21BB30BE40BF50B661F771F881FA1
:10131000991F1A9469F760957095809590959B0137
:10132000AC01BD01CF010895EE0FFF1F0590F491B0
:10133000E02D19940790F691E02D1994F894FFCFC1
:1013400000004000140054004448543231207465B9
:10135000737421004C434420493243205465737414
:10136000202D203230783400303132333435363766
:1013700038393938373635343332313000000000EF
:101380000071021B09000000002603F902CE02D6FC
:1013900002E902F8020000000097071B09EA0603B1
:1013A00007F50675070D0A006E616E00696E66002E
:0613B0006F7666002E00BE
:00000001FF
